23193V010310372MARIA          ALEJANDRA      MORALES        HACKETT        S0000000000000000000000000000000002477481
23193V011916561NALLYVI                       ALFONZO        ALFONZO        S0000000000000000000000000000000000524331
23193V012810118YELITZA        DEL CARMEN     RODRIGUEZ      PALMA          S0000000000000000000000000000000000426321
23193V012984765RIBER          JOHANY         MARTINEZ       VARGAS         S0000000000000000000000000000000001177421
23193V014163773CARLOS         DAVID          MORA                          S0000000000000000000000000000000002971931
23193V016301847MELANY         PATRICIA       LAYA           GUERRERO       S0000000000000000000000000000000002019881
23193V016357558HUMBERTO       ENRIQUE        ESCALONA       RODRIGUEZ      S0000000000000000000000000000000000858001
23193V017141461JEISON         JOSE           VILLARROEL     CELIS          S0000000000000000000000000000000000490271
23193V017166409YUSBEL         CAROLINA       RADA           DIAZ           S0000000000000000000000000000000000602981
23193V018391536LEONARDO       JOSE           RODRIGUEZ      ALVAREZ        S0000000000000000000000000000000001158301
23193V018735584MIGUEL         ANGEL          VELASCO        AMEZQUITA      S0000000000000000000000000000000000524331
23193V018812776CARELS         DEL CARMEN     TOVAR          MENDOZA        S0000000000000000000000000000000000696821
23193V019446720MARIANDRY      BEATRIZ        LACLE          BELLO          S0000000000000000000000000000000000548171
