23193V018315477MILEXY         ELENA          MENDEZ         DIAZ           S0000000000000000000000000000000002192671
23193V018810480EMMERLYN       MARLYN         AZUAJE         MARCANO        S0000000000000000000000000000000000557701
23193V020228343IAN            ALEXANDER      AZUAJE         BORREL         S0000000000000000000000000000000000907901
23193V022854359KEYLIN         MARIA          RUIZ           MARIN          S0000000000000000000000000000000002478671
