23193V018315477MILEXY         ELENA          MENDEZ         DIAZ           S0000000000000000000000000000000002192671
23193V018810480EMMERLYN       MARLYN         AZUAJE         MARCANO        S0000000000000000000000000000000000557701
23193V020228343IAN            ALEXANDER      AZUAJE         BORREL         S0000000000000000000000000000000000907901
23193V022854359KEYLIN         MARIA          RUIZ           MARIN          S0000000000000000000000000000000002478671
23193E084562654JUAN           LUIS           FRANCIA                       S0000000000000000000000000000000038350701
23193E0CY577968FANIA                         RODRIGUES      DA SILVA       S0000000000000000000000000000000012739991
23193V081974081JON                           RESTPO                        S0000000000000000000000000000000011261251
