23193V005113864JOSE           FRANCISCO      FUENTES        COLINA         S0000000000000000000000000000000001836751
23193V006851399BRODERICH      RAFAEL         NUÑEZ          VARGAS         S0000000000000000000000000000000001414841
23193V007956961ANA            ISABEL         SEQUERA        VALERA         S0000000000000000000000000000000003078691
23193V008774345RICHARD        ANTONIO        FLORES         COLMENARES     S0000000000000000000000000000000001906661
23193V010529500RAIZA          MARIBEL        CARABALLO      GARCIA         S0000000000000000000000000000000001394261
23193V010820700JOSE           NARKIS         ORTEGA                        S0000000000000000000000000000000001508411
23193V010866030CARLOS         EDUARDO        RUIZ           PADRON         S0000000000000000000000000000000001888191
23193V011158785MIRTHA         DEL CARMEN     MENDOZA        ROSALES        S0000000000000000000000000000000001297621
23193V011165985ZULEIMA        NATACHA        RONDON         CEDEÑO         S0000000000000000000000000000000000688871
23193V011504420MARISOL                       PASTRAN                       S0000000000000000000000000000000001093091
23193V011590892AYARIS         MILAGROS       PRATO          PEREIRA        S0000000000000000000000000000000001568531
23193V011916859KLIBIS         GUADALUPE      MARIN          MEJIAS         S0000000000000000000000000000000003270761
23193V012374818JORGE          ARMANDO        VELASQUEZ      DURAN          S0000000000000000000000000000000002051341
23193V012639380JOSE           ELIAS          CARVAJAL                      S0000000000000000000000000000000001918441
23193V012693243ROMINA         RAQUEL         GARCIA         ARANGUREN      S0000000000000000000000000000000002349011
23193V013655292JOSE           LUIS           OLIVEROS       FEBRES         S0000000000000000000000000000000001683551
23193V014099453JESUS          EDDIXON        GONZALEZ       ALCEDO         S0000000000000000000000000000000002411941
23193V014287499RICHARD        JOSE           BORGES         OTERO          S0000000000000000000000000000000001152871
23193V014460339MARIA          LUISA          URBANEJA       MOLINA         S0000000000000000000000000000000003531151
23193V014486955DANIELS        RAFAEL         GIAQUINTO      LARES          S0000000000000000000000000000000002713421
23193V014559534LIOMAR         ALEXANDER      URBAN          VARELA         S0000000000000000000000000000000001168931
23193V014689094LEE            ANDERSON       ROMERO         VIVAS          S0000000000000000000000000000000001904821
23193V014875277EMERSON        MANUEL         ESCALONA       RODRIGUEZ      S0000000000000000000000000000000001255901
23193V014898106LUIS           EDUARDO        MOTA           SANCHEZ        S0000000000000000000000000000000001763721
23193V014959711KARLA          SARAHY         PALACIOS       ZURITA         S0000000000000000000000000000000002894331
23193V014988183JOHAN          FRANCISCO      GARCIA         CARMONA        S0000000000000000000000000000000001036761
23193V015709628CARLOS         EMIR           BASTIDAS       GARCIA         S0000000000000000000000000000000001891831
23193V015842143STEVEN                        SEPULVEDA      SIFONTES       S0000000000000000000000000000000002576391
23193V016006589JUAN           ALEXANDER      NOTZ           FERNANDEZ      S0000000000000000000000000000000002773721
23193V016139016MANUEL         ALEXIS         RODRIGUEZ      LINARES        S0000000000000000000000000000000003045661
23193V016379894EDYMAR         GISELLY        FLORES         RUIZ           S0000000000000000000000000000000003084811
23193V016710246VICTOR         AUGUSTO        GOMEZ          RODRIGUEZ      S0000000000000000000000000000000002253961
23193V016796944ANDREA         DESIREE        VELANDIA       OVIEDO         S0000000000000000000000000000000002357111
23193V016852310VIRGINIA       JOSE           HERNANDEZ      ROJAS          S0000000000000000000000000000000002521571
23193V016904716JEFFREY        JOSUE          LEON           MERENTES       S0000000000000000000000000000000000342111
23193V016924406JOHAN          MANUEL         VALERA         LEAL           S0000000000000000000000000000000001205971
23193V016952017JUAN           JOSE           ESPINOZA       AGUILAR        S0000000000000000000000000000000002411941
23193V016952572OLIVER         ADRIAN         BONILLA        QUINTERO       S0000000000000000000000000000000002402711
23193V017123644GUSTAVO        ALBERTO        PEREZ          ROSO           S0000000000000000000000000000000000476671
23193V017125736VICTOR         ALFONSO        GRANADILLO     FLORES         S0000000000000000000000000000000002363431
23193V017610384YINESKA        JOSELIN        PARRA                         S0000000000000000000000000000000001048671
23193V017643359LUIS           MANUEL         KEY                           S0000000000000000000000000000000001036761
23193V017651785VISNER         LUIS           RIVERO         GARCIA         S0000000000000000000000000000000001088591
23193V017719719OSWALDO        JOSE           BERNE          REINOSO        S0000000000000000000000000000000001872541
23193V017756839ELISABETH                     CASTRO         BORELLY        S0000000000000000000000000000000002885551
23193V017836833JASHET         ISRAEL         VILLEGAS       CAMARILLO      S0000000000000000000000000000000001429071
23193V017975614EDUARDO        JOSE           CAPITILLO      RODRIGUEZ      S0000000000000000000000000000000001167961
23193V018029674LUIS           ERNESTO        GUERRA         RAMIREZ        S0000000000000000000000000000000002466751
23193V018039553YURIE          ALEXANDRA      RODRIGUEZ      RAMIREZ        S0000000000000000000000000000000002120871
23193V018109463YERALDIN       DEL CARMEN     MOLINA         RANGEL         S0000000000000000000000000000000002138631
23193V018244996RAMON          ALEXANDER      ESPINAL        GONZALEZ       S0000000000000000000000000000000002019881
23193V018528693FREWIL         LEONARDO       HERNANDEZ      QUINTERO       S0000000000000000000000000000000001530951
23193V018796371NOHEMI         SUSANA         RAMIREZ        CALDERON       S0000000000000000000000000000000002074691
23193V019023029DUBRASKELIS    YETHNAIS       TROMPIZ        AZUAJE         S0000000000000000000000000000000001026321
23193V019255394FREDDY         RAFAEL         ESPAÑOL        DIAZ           S0000000000000000000000000000000001496691
23193V019290410JHONSON        MIGUEL         MINA           ALZATE         S0000000000000000000000000000000001557711
23193V019368270ELIANA         MILAGROS       GONCALVES      SOUSA          S0000000000000000000000000000000001493541
23193V019380726AMADOR         JOSE           YANEZ          MATA           S0000000000000000000000000000000001036761
23193V019500720OSWALDO        JOSE           REBOLO         DUARTE         S0000000000000000000000000000000001188051
23193V019650487MARIA          MILDRED        SUAREZ         LEGONES        S0000000000000000000000000000000001654761
23193V019720674ROGERS         ALBERTO        ESCOBAR        CAMPOS         S0000000000000000000000000000000001327541
23193V019933191NEIRO          JOSE           ESCALONA       FUENTES        S0000000000000000000000000000000001517081
23193V019967117JHON           JAIRO          BARRIOS        NUÑEZ          S0000000000000000000000000000000001394261
23193V020301732WINDERLYN      DANIELA        AMUNDARAY      RAMOS          S0000000000000000000000000000000001300801
23193V020792399JUAN           JOSE           TOVAR          GOMEZ          S0000000000000000000000000000000001281361
23193V025209785GUIVERT        CHANEY         OROPEZA        COLMENARES     S0000000000000000000000000000000001803621
23193E083800063ROBERT         ALEXANDER      VIVAS          MONTEALEGRE    S0000000000000000000000000000000002192661
