23193V006430843DOUGLAS                       USECHE         PERNIA         S0000000000000000000000000000000001394251
23193V013125976ARMANDO        ENRIQUE        SANJUANELO     PEREZ          S0000000000000000000000000000000001753271
23193V014019676DANIEL         JOSE           MALPICA        GUEVARA        S0000000000000000000000000000000000518381
23193V016683047IRENE          MARILIN        RODRIGUES      REIS           S0000000000000000000000000000000000344431
23193V017857617ANIBAL         JOSE           RODRIGUEZ      SOLORZANO      S0000000000000000000000000000000000259191
23193V018002680FRANCISCO      JAVIER         MURILLO                       S0000000000000000000000000000000000476671
23193V018440617ISLEYBI        ANJANY         PEREZ          IGUARO         S0000000000000000000000000000000000268131
23193V018539509NAZARETH       JESUS          GONZALEZ       PIÑATE         S0000000000000000000000000000000000559851
23193V019604938ARJANI         DAYAL          SANCHEZ        RODRIGUEZ      S0000000000000000000000000000000001906671
23193V020596997ANA                           GAROFALO       AGUILAR        S0000000000000000000000000000000000268131
