23193V006430843DOUGLAS                       USECHE         PERNIA         S0000000000000000000000000000000000697131
23193V010310372MARIA          ALEJANDRA      MORALES        HACKETT        S0000000000000000000000000000000002477481
23193V011916561NALLYVI                       ALFONZO        ALFONZO        S0000000000000000000000000000000000524331
23193V012810118YELITZA        DEL CARMEN     RODRIGUEZ      PALMA          S0000000000000000000000000000000000426321
23193V012984765RIBER          JOHANY         MARTINEZ       VARGAS         S0000000000000000000000000000000001177421
23193V013125976ARMANDO        ENRIQUE        SANJUANELO     PEREZ          S0000000000000000000000000000000000759871
23193V014019676DANIEL         JOSE           MALPICA        GUEVARA        S0000000000000000000000000000000000650561
23193V014163773CARLOS         DAVID          MORA                          S0000000000000000000000000000000002971931
23193V016301847MELANY         PATRICIA       LAYA           GUERRERO       S0000000000000000000000000000000002019881
23193V016357558HUMBERTO       ENRIQUE        ESCALONA       RODRIGUEZ      S0000000000000000000000000000000000858001
23193V016683047IRENE          MARILIN        RODRIGUES      REIS           S0000000000000000000000000000000000723311
23193V017141461JEISON         JOSE           VILLARROEL     CELIS          S0000000000000000000000000000000000490271
23193V017166409YUSBEL         CAROLINA       RADA           DIAZ           S0000000000000000000000000000000000602981
23193V017857617ANIBAL         JOSE           RODRIGUEZ      SOLORZANO      S0000000000000000000000000000000000690091
23193V018002680FRANCISCO      JAVIER         MURILLO                       S0000000000000000000000000000000001079051
23193V018391536LEONARDO       JOSE           RODRIGUEZ      ALVAREZ        S0000000000000000000000000000000001158301
23193V018440617ISLEYBI        ANJANY         PEREZ          IGUARO         S0000000000000000000000000000000000536251
23193V018539509NAZARETH       JESUS          GONZALEZ       PIÑATE         S0000000000000000000000000000000000559851
23193V018735584MIGUEL         ANGEL          VELASCO        AMEZQUITA      S0000000000000000000000000000000000524331
23193V018812776CARELS         DEL CARMEN     TOVAR          MENDOZA        S0000000000000000000000000000000000696821
23193V019446720MARIANDRY      BEATRIZ        LACLE          BELLO          S0000000000000000000000000000000000548171
23193V019604938ARJANI         DAYAL          SANCHEZ        RODRIGUEZ      S0000000000000000000000000000000000953331
23193V020596997ANA                           GAROFALO       AGUILAR        S0000000000000000000000000000000000536251
