23193V005523332SABINO                        PENA           TOLEDO         S000000000000000000000000000000000393250
23193V006117565HELGA          ROSA           MALAVE                        S000000000000000000000000000000000228800
23193V006178413RAFAEL         ANGEL          CAMACHO        GALINDO        S000000000000000000000000000000000503360
23193V006305908URSULA         CAROLINA       SOLANO         HURTADO        S000000000000000000000000000000000196625
23193V020801990JORGE          EDGAR          OLMOS          ORTIZ          S000000000000000000000000000000000648863
23193E084556783WILLIAM        EDUARDO        PARRA          JAIMES         S000000000000000000000000000000000882890
