23193E000585255MONICA                        VISTALI                       S000000000000000000000000000000000490830
23193V000934512ROLANDO                       SEGURA         JIMENEZ        S000000000000000000000000000000000380875
23193V466453025STEPHANIE      MONTALAN       KENNEDY                       S000000000000000000000000000000000394680
23193V6420020153DAGOBERTO                     DIAZ           MARTINEZ       S000000000000000000000000000000000343200
