23193V011204996ELIZABETH      AIDA           GOMEZ          SALCEDO        S0000000000000000000000000000000003604801
23193V013713324ANAIS          MERCEDES       SALAZAR        OTERO          S0000000000000000000000000000000003604801
23193V014534341JOSLUIS        ALEJANDRO      ARCILA         ESCOBAR        S0000000000000000000000000000000003277081
23193V015264121CESAR          GERONIMO       CARIPA         LOPEZ          S0000000000000000000000000000000003277081
23193V015395994ALEJANDRO                     FERNANDEZ      COLL           S0000000000000000000000000000000004194661
